{
  "_format": "hh-sol-artifact-1",
  "contractName": "Marketplace",
  "sourceName": "contracts/Marketplace.sol",
  "abi": [
    {
      "inputs": [],
      "stateMutability": "nonpayable",
      "type": "constructor"
    },
    {
      "inputs": [],
      "name": "CourseHasOwner",
      "type": "error"
    },
    {
      "inputs": [],
      "name": "OnlyOwner",
      "type": "error"
    },
    {
      "inputs": [],
      "name": "getContractOwner",
      "outputs": [
        {
          "internalType": "address",
          "name": "",
          "type": "address"
        }
      ],
      "stateMutability": "view",
      "type": "function"
    },
    {
      "inputs": [
        {
          "internalType": "bytes32",
          "name": "courseHash",
          "type": "bytes32"
        }
      ],
      "name": "getCourseByHash",
      "outputs": [
        {
          "components": [
            {
              "internalType": "uint256",
              "name": "id",
              "type": "uint256"
            },
            {
              "internalType": "uint256",
              "name": "price",
              "type": "uint256"
            },
            {
              "internalType": "bytes32",
              "name": "proof",
              "type": "bytes32"
            },
            {
              "internalType": "address",
              "name": "owner",
              "type": "address"
            },
            {
              "internalType": "enum Marketplace.State",
              "name": "state",
              "type": "uint8"
            }
          ],
          "internalType": "struct Marketplace.Course",
          "name": "",
          "type": "tuple"
        }
      ],
      "stateMutability": "view",
      "type": "function"
    },
    {
      "inputs": [],
      "name": "getCourseCount",
      "outputs": [
        {
          "internalType": "uint256",
          "name": "",
          "type": "uint256"
        }
      ],
      "stateMutability": "view",
      "type": "function"
    },
    {
      "inputs": [
        {
          "internalType": "uint256",
          "name": "index",
          "type": "uint256"
        }
      ],
      "name": "getCourseHashAtIndex",
      "outputs": [
        {
          "internalType": "bytes32",
          "name": "",
          "type": "bytes32"
        }
      ],
      "stateMutability": "view",
      "type": "function"
    },
    {
      "inputs": [
        {
          "internalType": "bytes16",
          "name": "courseId",
          "type": "bytes16"
        },
        {
          "internalType": "bytes32",
          "name": "proof",
          "type": "bytes32"
        }
      ],
      "name": "purchaseCourse",
      "outputs": [],
      "stateMutability": "payable",
      "type": "function"
    },
    {
      "inputs": [
        {
          "internalType": "address",
          "name": "newOwner",
          "type": "address"
        }
      ],
      "name": "transferOwnership",
      "outputs": [],
      "stateMutability": "nonpayable",
      "type": "function"
    }
  ],
  "bytecode": "0x608060405234801561001057600080fd5b50600380546001600160a01b031916331790556104fd806100326000396000f3fe6080604052600436106100555760003560e01c8063442890d51461005a57806362e4e6ac146100875780636d11290b146100b457806396cfda06146100ef578063d76821cb14610104578063f2fde38b14610119575b600080fd5b34801561006657600080fd5b506003546040516001600160a01b0390911681526020015b60405180910390f35b34801561009357600080fd5b506100a76100a2366004610428565b610139565b60405161007e9190610440565b3480156100c057600080fd5b506100e16100cf366004610428565b60009081526001602052604090205490565b60405190815260200161007e565b3480156100fb57600080fd5b506002546100e1565b6101176101123660046103f1565b61020b565b005b34801561012557600080fd5b506101176101343660046103c3565b61037a565b6101686040805160a0810182526000808252602082018190529181018290526060810182905290608082015290565b60008281526020818152604091829020825160a081018452815481526001820154928101929092526002808201549383019390935260038101546001600160a01b0381166060840152919290916080840191600160a01b90910460ff16908111156101e357634e487b7160e01b600052602160045260246000fd5b600281111561020257634e487b7160e01b600052602160045260246000fd5b90525092915050565b6040516001600160801b0319831660208201526bffffffffffffffffffffffff193360601b166030820152600090604401604051602081830303815290604052805190602001209050610278816000908152602081905260409020600301546001600160a01b0316331490565b156102965760405163b0fc2d9760e01b815260040160405180910390fd5b60028054600091826102a7836104a0565b909155506000818152600160209081526040808320869055805160a08101825284815234928101929092528101869052336060820152919250608082015260008381526020818152604091829020835181559083015160018201559082015160028083019190915560608301516003830180546001600160a01b039092166001600160a01b031983168117825560808601519391926001600160a81b0319161790600160a01b90849081111561036d57634e487b7160e01b600052602160045260246000fd5b0217905550505050505050565b6003546001600160a01b031633146103a557604051635fc483c560e01b815260040160405180910390fd5b600380546001600160a01b0319166001600160a01b03831617905550565b6000602082840312156103d4578081fd5b81356001600160a01b03811681146103ea578182fd5b9392505050565b60008060408385031215610403578081fd5b82356001600160801b03198116811461041a578182fd5b946020939093013593505050565b600060208284031215610439578081fd5b5035919050565b8151815260208083015190820152604080830151908201526060808301516001600160a01b031690820152608082015160a08201906003811061049357634e487b7160e01b600052602160045260246000fd5b8060808401525092915050565b60006000198214156104c057634e487b7160e01b81526011600452602481fd5b506001019056fea26469706673582212201e4f5cd86dcaa6f724ef32d3dc516f8a463d1972b0999497640202fbd3c4098464736f6c63430008040033",
  "linkReferences": {},
  "deployedLinkReferences": {}
}